{
  "_format": "hh-sol-artifact-1",
  "contractName": "Escrow",
  "sourceName": "contracts/Escrow.sol",
  "abi": [
    {
      "inputs": [],
      "stateMutability": "nonpayable",
      "type": "constructor"
    },
    {
      "anonymous": false,
      "inputs": [
        {
          "indexed": true,
          "internalType": "uint256",
          "name": "jobId",
          "type": "uint256"
        },
        {
          "indexed": true,
          "internalType": "address",
          "name": "worker",
          "type": "address"
        }
      ],
      "name": "JobApplied",
      "type": "event"
    },
    {
      "anonymous": false,
      "inputs": [
        {
          "indexed": true,
          "internalType": "uint256",
          "name": "jobId",
          "type": "uint256"
        },
        {
          "indexed": true,
          "internalType": "address",
          "name": "worker",
          "type": "address"
        }
      ],
      "name": "JobCompleted",
      "type": "event"
    },
    {
      "anonymous": false,
      "inputs": [
        {
          "indexed": true,
          "internalType": "uint256",
          "name": "jobId",
          "type": "uint256"
        },
        {
          "indexed": false,
          "internalType": "uint256",
          "name": "payment",
          "type": "uint256"
        }
      ],
      "name": "JobCreated",
      "type": "event"
    },
    {
      "anonymous": false,
      "inputs": [
        {
          "indexed": true,
          "internalType": "uint256",
          "name": "jobId",
          "type": "uint256"
        },
        {
          "indexed": true,
          "internalType": "address",
          "name": "worker",
          "type": "address"
        },
        {
          "indexed": false,
          "internalType": "uint256",
          "name": "payment",
          "type": "uint256"
        }
      ],
      "name": "PaymentReleased",
      "type": "event"
    },
    {
      "anonymous": false,
      "inputs": [
        {
          "indexed": true,
          "internalType": "uint256",
          "name": "jobId",
          "type": "uint256"
        },
        {
          "indexed": true,
          "internalType": "address",
          "name": "worker",
          "type": "address"
        }
      ],
      "name": "WorkerApproved",
      "type": "event"
    },
    {
      "inputs": [
        {
          "internalType": "uint256",
          "name": "_jobId",
          "type": "uint256"
        }
      ],
      "name": "applyForJob",
      "outputs": [],
      "stateMutability": "nonpayable",
      "type": "function"
    },
    {
      "inputs": [
        {
          "internalType": "uint256",
          "name": "_jobId",
          "type": "uint256"
        },
        {
          "internalType": "address",
          "name": "_worker",
          "type": "address"
        }
      ],
      "name": "approveWorker",
      "outputs": [],
      "stateMutability": "nonpayable",
      "type": "function"
    },
    {
      "inputs": [
        {
          "internalType": "uint256",
          "name": "_jobId",
          "type": "uint256"
        }
      ],
      "name": "completeJob",
      "outputs": [],
      "stateMutability": "nonpayable",
      "type": "function"
    },
    {
      "inputs": [
        {
          "internalType": "uint256",
          "name": "_jobId",
          "type": "uint256"
        }
      ],
      "name": "createJob",
      "outputs": [],
      "stateMutability": "payable",
      "type": "function"
    },
    {
      "inputs": [
        {
          "internalType": "uint256",
          "name": "_jobId",
          "type": "uint256"
        }
      ],
      "name": "getApplicants",
      "outputs": [
        {
          "internalType": "address[]",
          "name": "",
          "type": "address[]"
        }
      ],
      "stateMutability": "view",
      "type": "function"
    },
    {
      "inputs": [
        {
          "internalType": "uint256",
          "name": "",
          "type": "uint256"
        },
        {
          "internalType": "uint256",
          "name": "",
          "type": "uint256"
        }
      ],
      "name": "jobApplicants",
      "outputs": [
        {
          "internalType": "address",
          "name": "",
          "type": "address"
        }
      ],
      "stateMutability": "view",
      "type": "function"
    },
    {
      "inputs": [
        {
          "internalType": "uint256",
          "name": "",
          "type": "uint256"
        }
      ],
      "name": "jobs",
      "outputs": [
        {
          "internalType": "uint256",
          "name": "id",
          "type": "uint256"
        },
        {
          "internalType": "uint256",
          "name": "payment",
          "type": "uint256"
        },
        {
          "internalType": "address",
          "name": "worker",
          "type": "address"
        },
        {
          "internalType": "enum Escrow.JobStatus",
          "name": "status",
          "type": "uint8"
        },
        {
          "internalType": "bool",
          "name": "exists",
          "type": "bool"
        }
      ],
      "stateMutability": "view",
      "type": "function"
    },
    {
      "inputs": [],
      "name": "owner",
      "outputs": [
        {
          "internalType": "address",
          "name": "",
          "type": "address"
        }
      ],
      "stateMutability": "view",
      "type": "function"
    },
    {
      "inputs": [
        {
          "internalType": "uint256",
          "name": "_jobId",
          "type": "uint256"
        }
      ],
      "name": "releasePayment",
      "outputs": [],
      "stateMutability": "nonpayable",
      "type": "function"
    },
    {
      "stateMutability": "payable",
      "type": "receive"
    }
  ],
  "bytecode": "0x608060405234801561001057600080fd5b50336000806101000a81548173ffffffffffffffffffffffffffffffffffffffff021916908373ffffffffffffffffffffffffffffffffffffffff160217905550611aca806100606000396000f3fe60806040526004361061008a5760003560e01c80638da5cb5b116100595780638da5cb5b14610166578063a1c0d32f14610191578063e0c94ae5146101ba578063f2b67e7d146101e3578063f4b1d3761461022057610091565b8063180aedf3146100965780636cf5d86e146100d7578063708709521461011457806388685cd91461013d57610091565b3661009157005b600080fd5b3480156100a257600080fd5b506100bd60048036038101906100b8919061113d565b61023c565b6040516100ce95949392919061124c565b60405180910390f35b3480156100e357600080fd5b506100fe60048036038101906100f9919061113d565b6102ac565b60405161010b919061135d565b60405180910390f35b34801561012057600080fd5b5061013b600480360381019061013691906113ab565b61034d565b005b34801561014957600080fd5b50610164600480360381019061015f919061113d565b6105a3565b005b34801561017257600080fd5b5061017b610966565b60405161018891906113eb565b60405180910390f35b34801561019d57600080fd5b506101b860048036038101906101b3919061113d565b61098a565b005b3480156101c657600080fd5b506101e160048036038101906101dc919061113d565b610ba1565b005b3480156101ef57600080fd5b5061020a60048036038101906102059190611406565b610e2f565b60405161021791906113eb565b60405180910390f35b61023a6004803603810190610235919061113d565b610e7d565b005b60016020528060005260406000206000915090508060000154908060010154908060020160009054906101000a900473ffffffffffffffffffffffffffffffffffffffff16908060020160149054906101000a900460ff16908060020160159054906101000a900460ff16905085565b60606002600083815260200190815260200160002080548060200260200160405190810160405280929190818152602001828054801561034157602002820191906000526020600020905b8160009054906101000a900473ffffffffffffffffffffffffffffffffffffffff1673ffffffffffffffffffffffffffffffffffffffff16815260200190600101908083116102f7575b50505050509050919050565b60008054906101000a900473ffffffffffffffffffffffffffffffffffffffff1673ffffffffffffffffffffffffffffffffffffffff163373ffffffffffffffffffffffffffffffffffffffff16146103db576040517f08c379a00000000000000000000000000000000000000000000000000000000081526004016103d2906114a3565b60405180910390fd5b6001600083815260200190815260200160002060020160159054906101000a900460ff1661043e576040517f08c379a00000000000000000000000000000000000000000000000000000000081526004016104359061150f565b60405180910390fd5b60006004811115610452576104516111ba565b5b6001600084815260200190815260200160002060020160149054906101000a900460ff166004811115610488576104876111ba565b5b146104c8576040517f08c379a00000000000000000000000000000000000000000000000000000000081526004016104bf9061157b565b60405180910390fd5b806001600084815260200190815260200160002060020160006101000a81548173ffffffffffffffffffffffffffffffffffffffff021916908373ffffffffffffffffffffffffffffffffffffffff160217905550600180600084815260200190815260200160002060020160146101000a81548160ff02191690836004811115610556576105556111ba565b5b02179055508073ffffffffffffffffffffffffffffffffffffffff16827f83d48b643f5aeffdab246deabcbb278f0785e29862795258474f6f4e2c1a324760405160405180910390a35050565b60008054906101000a900473ffffffffffffffffffffffffffffffffffffffff1673ffffffffffffffffffffffffffffffffffffffff163373ffffffffffffffffffffffffffffffffffffffff1614610631576040517f08c379a0000000000000000000000000000000000000000000000000000000008152600401610628906114a3565b60405180910390fd5b6001600082815260200190815260200160002060020160159054906101000a900460ff16610694576040517f08c379a000000000000000000000000000000000000000000000000000000000815260040161068b9061150f565b60405180910390fd5b600260048111156106a8576106a76111ba565b5b6001600083815260200190815260200160002060020160149054906101000a900460ff1660048111156106de576106dd6111ba565b5b1461071e576040517f08c379a0000000000000000000000000000000000000000000000000000000008152600401610715906115e7565b60405180910390fd5b60006001600083815260200190815260200160002060020160009054906101000a900473ffffffffffffffffffffffffffffffffffffffff169050600060016000848152602001908152602001600020600101549050600073ffffffffffffffffffffffffffffffffffffffff168273ffffffffffffffffffffffffffffffffffffffff16036107e3576040517f08c379a00000000000000000000000000000000000000000000000000000000081526004016107da90611653565b60405180910390fd5b80471015610826576040517f08c379a000000000000000000000000000000000000000000000000000000000815260040161081d906116bf565b60405180910390fd5b60036001600085815260200190815260200160002060020160146101000a81548160ff021916908360048111156108605761085f6111ba565b5b021790555060008273ffffffffffffffffffffffffffffffffffffffff168260405161088b90611710565b60006040518083038185875af1925050503d80600081146108c8576040519150601f19603f3d011682016040523d82523d6000602084013e6108cd565b606091505b5050905080610911576040517f08c379a000000000000000000000000000000000000000000000000000000000815260040161090890611771565b60405180910390fd5b8273ffffffffffffffffffffffffffffffffffffffff16847f21d71db5be59bb9fa133895586b7404307dd33fb93b16db09dc6f1d9d7d231b0846040516109589190611791565b60405180910390a350505050565b60008054906101000a900473ffffffffffffffffffffffffffffffffffffffff1681565b6001600082815260200190815260200160002060020160159054906101000a900460ff166109ed576040517f08c379a00000000000000000000000000000000000000000000000000000000081526004016109e49061150f565b60405180910390fd5b60016004811115610a0157610a006111ba565b5b6001600083815260200190815260200160002060020160149054906101000a900460ff166004811115610a3757610a366111ba565b5b14610a77576040517f08c379a0000000000000000000000000000000000000000000000000000000008152600401610a6e906117f8565b60405180910390fd5b3373ffffffffffffffffffffffffffffffffffffffff166001600083815260200190815260200160002060020160009054906101000a900473ffffffffffffffffffffffffffffffffffffffff1673ffffffffffffffffffffffffffffffffffffffff1614610b1b576040517f08c379a0000000000000000000000000000000000000000000000000000000008152600401610b129061188a565b60405180910390fd5b60026001600083815260200190815260200160002060020160146101000a81548160ff02191690836004811115610b5557610b546111ba565b5b02179055503373ffffffffffffffffffffffffffffffffffffffff16817f16a7286196330eaff0c7db2ec34ead9c6d2d023b356b62ee7ea644c842a84b6760405160405180910390a350565b6001600082815260200190815260200160002060020160159054906101000a900460ff16610c04576040517f08c379a0000000000000000000000000000000000000000000000000000000008152600401610bfb9061150f565b60405180910390fd5b60006004811115610c1857610c176111ba565b5b6001600083815260200190815260200160002060020160149054906101000a900460ff166004811115610c4e57610c4d6111ba565b5b14610c8e576040517f08c379a0000000000000000000000000000000000000000000000000000000008152600401610c859061157b565b60405180910390fd5b600060026000838152602001908152602001600020905060005b8180549050811015610d72573373ffffffffffffffffffffffffffffffffffffffff16828281548110610cde57610cdd6118aa565b5b9060005260206000200160009054906101000a900473ffffffffffffffffffffffffffffffffffffffff1673ffffffffffffffffffffffffffffffffffffffff1603610d5f576040517f08c379a0000000000000000000000000000000000000000000000000000000008152600401610d5690611925565b60405180910390fd5b8080610d6a90611974565b915050610ca8565b5060026000838152602001908152602001600020339080600181540180825580915050600190039060005260206000200160009091909190916101000a81548173ffffffffffffffffffffffffffffffffffffffff021916908373ffffffffffffffffffffffffffffffffffffffff1602179055503373ffffffffffffffffffffffffffffffffffffffff16827fffa837d183240a5f25cbd643a8eade702c0c9c3e186c59c7d929e4f1a3438d8660405160405180910390a35050565b60026020528160005260406000208181548110610e4b57600080fd5b906000526020600020016000915091509054906101000a900473ffffffffffffffffffffffffffffffffffffffff1681565b60008054906101000a900473ffffffffffffffffffffffffffffffffffffffff1673ffffffffffffffffffffffffffffffffffffffff163373ffffffffffffffffffffffffffffffffffffffff1614610f0b576040517f08c379a0000000000000000000000000000000000000000000000000000000008152600401610f02906114a3565b60405180910390fd5b6001600082815260200190815260200160002060020160159054906101000a900460ff1615610f6f576040517f08c379a0000000000000000000000000000000000000000000000000000000008152600401610f6690611a08565b60405180910390fd5b60003411610fb2576040517f08c379a0000000000000000000000000000000000000000000000000000000008152600401610fa990611a74565b60405180910390fd5b6040518060a00160405280828152602001348152602001600073ffffffffffffffffffffffffffffffffffffffff16815260200160006004811115610ffa57610ff96111ba565b5b81526020016001151581525060016000838152602001908152602001600020600082015181600001556020820151816001015560408201518160020160006101000a81548173ffffffffffffffffffffffffffffffffffffffff021916908373ffffffffffffffffffffffffffffffffffffffff16021790555060608201518160020160146101000a81548160ff0219169083600481111561109f5761109e6111ba565b5b021790555060808201518160020160156101000a81548160ff021916908315150217905550905050807f8f215c609aac3cb40ed792585b1381049cacfa0495844d7519b79ae62caed997346040516110f79190611791565b60405180910390a250565b600080fd5b6000819050919050565b61111a81611107565b811461112557600080fd5b50565b60008135905061113781611111565b92915050565b60006020828403121561115357611152611102565b5b600061116184828501611128565b91505092915050565b61117381611107565b82525050565b600073ffffffffffffffffffffffffffffffffffffffff82169050919050565b60006111a482611179565b9050919050565b6111b481611199565b82525050565b7f4e487b7100000000000000000000000000000000000000000000000000000000600052602160045260246000fd5b600581106111fa576111f96111ba565b5b50565b600081905061120b826111e9565b919050565b600061121b826111fd565b9050919050565b61122b81611210565b82525050565b60008115159050919050565b61124681611231565b82525050565b600060a082019050611261600083018861116a565b61126e602083018761116a565b61127b60408301866111ab565b6112886060830185611222565b611295608083018461123d565b9695505050505050565b600081519050919050565b600082825260208201905092915050565b6000819050602082019050919050565b6112d481611199565b82525050565b60006112e683836112cb565b60208301905092915050565b6000602082019050919050565b600061130a8261129f565b61131481856112aa565b935061131f836112bb565b8060005b8381101561135057815161133788826112da565b9750611342836112f2565b925050600181019050611323565b5085935050505092915050565b6000602082019050818103600083015261137781846112ff565b905092915050565b61138881611199565b811461139357600080fd5b50565b6000813590506113a58161137f565b92915050565b600080604083850312156113c2576113c1611102565b5b60006113d085828601611128565b92505060206113e185828601611396565b9150509250929050565b600060208201905061140060008301846111ab565b92915050565b6000806040838503121561141d5761141c611102565b5b600061142b85828601611128565b925050602061143c85828601611128565b9150509250929050565b600082825260208201905092915050565b7f4f6e6c79206f776e65722063616e2063616c6c20746869730000000000000000600082015250565b600061148d601883611446565b915061149882611457565b602082019050919050565b600060208201905081810360008301526114bc81611480565b9050919050565b7f4a6f6220646f6573206e6f742065786973740000000000000000000000000000600082015250565b60006114f9601283611446565b9150611504826114c3565b602082019050919050565b60006020820190508181036000830152611528816114ec565b9050919050565b7f4a6f62206973206e6f74206f70656e0000000000000000000000000000000000600082015250565b6000611565600f83611446565b91506115708261152f565b602082019050919050565b6000602082019050818103600083015261159481611558565b9050919050565b7f4a6f62206973206e6f7420636f6d706c65746564000000000000000000000000600082015250565b60006115d1601483611446565b91506115dc8261159b565b602082019050919050565b60006020820190508181036000830152611600816115c4565b9050919050565b7f4e6f20776f726b65722061737369676e65640000000000000000000000000000600082015250565b600061163d601283611446565b915061164882611607565b602082019050919050565b6000602082019050818103600083015261166c81611630565b9050919050565b7f496e73756666696369656e7420657363726f772062616c616e63650000000000600082015250565b60006116a9601b83611446565b91506116b482611673565b602082019050919050565b600060208201905081810360008301526116d88161169c565b9050919050565b600081905092915050565b50565b60006116fa6000836116df565b9150611705826116ea565b600082019050919050565b600061171b826116ed565b9150819050919050565b7f5472616e73666572206661696c65640000000000000000000000000000000000600082015250565b600061175b600f83611446565b915061176682611725565b602082019050919050565b6000602082019050818103600083015261178a8161174e565b9050919050565b60006020820190506117a6600083018461116a565b92915050565b7f4a6f62206973206e6f742061737369676e656400000000000000000000000000600082015250565b60006117e2601383611446565b91506117ed826117ac565b602082019050919050565b60006020820190508181036000830152611811816117d5565b9050919050565b7f4f6e6c79207468652061737369676e656420776f726b65722063616e20636f6d60008201527f706c6574652074686973206a6f62000000000000000000000000000000000000602082015250565b6000611874602e83611446565b915061187f82611818565b604082019050919050565b600060208201905081810360008301526118a381611867565b9050919050565b7f4e487b7100000000000000000000000000000000000000000000000000000000600052603260045260246000fd5b7f416c7265616479206170706c6965640000000000000000000000000000000000600082015250565b600061190f600f83611446565b915061191a826118d9565b602082019050919050565b6000602082019050818103600083015261193e81611902565b9050919050565b7f4e487b7100000000000000000000000000000000000000000000000000000000600052601160045260246000fd5b600061197f82611107565b91507fffffffffffffffffffffffffffffffffffffffffffffffffffffffffffffffff82036119b1576119b0611945565b5b600182019050919050565b7f4a6f6220616c7265616479206578697374730000000000000000000000000000600082015250565b60006119f2601283611446565b91506119fd826119bc565b602082019050919050565b60006020820190508181036000830152611a21816119e5565b9050919050565b7f5061796d656e74206d7573742062652067726561746572207468616e20300000600082015250565b6000611a5e601e83611446565b9150611a6982611a28565b602082019050919050565b60006020820190508181036000830152611a8d81611a51565b905091905056fea26469706673582212202e77d210f4b59c7f99bd23db4b4bc3037cf1ad4422dee4aace205e0fb314d07d64736f6c63430008140033",
  "linkReferences": {},
  "deployedLinkReferences": {}
}